:020000040800F2
:1000000060040020050100087F120008B5110008F7
:100010007D1200081D080008E91200080000000019
:100020000000000000000000000000008312000833
:1000300091080008000000008112000885120008E5
:100040001F0100081F0100081F0100081F01000810
:100050001F0100081F0100081F0100081F01000800
:100060001F0100081F0100081F0100081F010008F0
:100070001F0100081F0100081F0100081F010008E0
:100080001F0100081F0100081F0100081F010008D0
:100090001F0100081F0100081F0100081F010008C0
:1000A0001F0100081F0100081F0100081F010008B0
:1000B0001F0100081F010008000000001F010008C8
:1000C0001F01000800000000000000001F010008E0
:1000D000000000001F0100081F01000800000000D0
:1000E000930800081F0100081F010008DFF810D066
:1000F00000F082FB004800473D1E0008AFF300807F
:10010000600400200648804706480047FEE7FEE7F7
:10011000FEE7FEE7FEE7FEE7FEE7FEE7FEE7FEE7B7
:10012000E7120008ED000008202A04DB203A21FA3B
:1001300002F00021704721FA02F3D040C2F1200200
:100140009140084319467047D2B201E000F8012BF4
:10015000491EFBD270470022F6E710B513460A4647
:1001600004461946FFF7F0FF204610BD421C10F868
:10017000011B0029FBD1801A7047F0B480EA01020C
:10018000D40F4200B2EB410F02D20246084611469C
:100190004A0042D0C30DDDB2C1F3C752AD1A202DC3
:1001A00035DAC1F3160141F4000204B15242C5F13F
:1001B000200602FA06F12A411044B3EBD05F23D0A7
:1001C000C4B1012DA0EBC35009DCF0BC4FF00042DC
:1001D00002EAC352DBB200F5000000F0F8B94000BB
:1001E00000F1807000EBC350A0F1807040EAD17044
:1001F000490009E0490841EAC071A0EBC35000F58D
:100200000000400800EBC350F0BC00F0D7B96142D9
:10021000012202EB4101001BF6E7F0BC704781F0C0
:100220000041AAE780F00040A7E72DE9FE4F804695
:1002300081EA0300C00F0C46009021F0004123F03A
:100240000045B8EB0200A94105D240462146904640
:100250001C460B46024623F00040104347D0270DB2
:10026000C7F30A00C3F30A510290401A01904028D4
:100270006BDAC3F3130040F4801B0098924620B160
:100280000023D2EB030A63EB0B0B01985946C0F134
:100290004002504600F071F906460D465046594658
:1002A000019A00F079F910EB08006141002487EA17
:1002B000115284EAE7731A4340D0009A62B3019A5C
:1002C000012A4FEA075215DC001B61EB02014FF0D7
:1002D000004202EA0752CDE90042001C41F58011BC
:1002E00032462B4600F0B0F903B0BDE8F08F40462F
:1002F0002146F9E7001B61EB0201001C41F5801368
:1003000000185B412018A2F5001747EB030140EAF3
:10031000D570B6196D4111E06D084FEA360645EA11
:10032000C0754FEA0752001B61EB0201001C41F54A
:10033000801149084FEA30000019514132462B46DE
:1003400003B0BDE8F04F00F070B900980122400002
:100350000023D0EB020263EBE073009821464FEAE2
:10036000E074B8EB000061EB0401E9E783F00043BF
:100370005BE781F0004158E72DE9F04D81EA030485
:1003800004F0004B21F0004514464FF0000A23F022
:10039000004150EA050220D054EA01021DD0C5F305
:1003A0000A570246C5F31303C1F31300C1F30A56FB
:1003B00040F4801543F48013A7EB0608101BD646C3
:1003C00008F2FD3873EB050002D308F1010801E0E3
:1003D00092185B41B8F1000F03DA00200146BDE836
:1003E000F08D00204FF48011064684460EE0171B66
:1003F00073EB050705D3121B63EB050306434CEAB9
:10040000010C49084FEA300092185B4150EA01079D
:10041000EDD152EA030012D082EA040083EA05011A
:10042000084305D0101BAB4106D20122002306E091
:1004300000224FF0004302E06FF0010253101AEB6C
:1004400006004CEB085110EB0A0041EB0B01BDE834
:10045000F04D00F0EAB8C10F80EAE0700844CA0726
:100460009623002100F0B3B80EB540F2334102915B
:100470000021CDE900110A460B4600F0E5F803B073
:1004800000BD000030B5041E71F1000404DB4FF024
:100490000044404264EB0101141E73F1000405DBCB
:1004A0001C464FF00043524263EB0403994208BFDD
:1004B000904230BD01F0004330B421F0004150EAD9
:1004C000010206D00A0DA2F56072C1F31301002AE1
:1004D00002DC30BC00207047440F44EAC104C10074
:1004E000E01830BC00EBC25000F068B830B50B46E5
:1004F000014600202022012409E021FA02F59D4254
:1005000005D303FA02F5491B04FA02F52844151E27
:10051000A2F10102F1DC30BD2DE9F05F05460020BB
:1005200092469B4688460646814640241BE0284664
:10053000414647462246FFF7F7FD53465A46C01A42
:10054000914110D311461846224600F016F82D1A94
:1005500067EB01084F4622460120002100F00DF80C
:1005600017EB00094E41201EA4F10104DFDC4846D0
:1005700031462A464346BDE8F09F202A04DB203A54
:1005800000FA02F1002070479140C2F1200320FAE6
:1005900003F3194390407047202A06DBCB17203A1B
:1005A00041FA02F043EAE07306E041FA02F3D04078
:1005B000C2F1200291400843194670470029A8BFA4
:1005C0007047401C490008BF20F00100704710B47C
:1005D000B0FA80FC00FA0CF050EA010404BF10BC31
:1005E000704749B1CCF1200421FA04F411FA0CF15E
:1005F00018BF012121430843A3EB0C01CB1D4FEA97
:1006000000614FEA102042BF002010BC704700EB91
:10061000C35010440029A4BF10BC7047401C4900BF
:1006200008BF20F0010010BC704710B5141E73F114
:10063000000408DA401C41F1000192185B411A43A2
:1006400001D120F0010010BD2DE9F04D92469B46EE
:1006500011B1B1FA81F202E0B0FA80F22032904694
:10066000FFF78BFF04460F4640EA0A0041EA0B0100
:1006700053465A46084313D0114653EA010019D095
:10068000C8F140025046FFF74FFD05460E46504662
:1006900059464246FFF771FF084305D0012004E0A8
:1006A00020463946BDE8F08D0020054346EAE07655
:1006B0002C4337430A986305E40AA0EB08000022A4
:1006C000FD0A44EA47540A3002D500200146E9E712
:1006D000010510196941DDE9084500196941BDE8C6
:1006E000F04DA2E72DE9FE4F81EA030404F0004437
:1006F00021F0004100944FF0000B23F0004350EA3A
:1007000001045ED052EA03045BD0C3F30A54C1F380
:100710000A552C44A4F2F3340194A0FB0254C1F313
:10072000130141F48011C3F3130343F4801301FB5D
:10073000024400FB034E840A970A44EA815447EAC4
:100740008357A4FB076802958D0A05FB07854FEACE
:10075000932C04FB0C542705029D4FEA065847EAE8
:100760001637B5EB08056EEB070C870E920E47EABD
:10077000811742EA8312A7FB0201B6EB0B0164EB7F
:1007800000042B0D43EA0C335E1844EB1C50DA4690
:100790005146E7FB0201C5F313044FEA0B3343EA6A
:1007A00014534FEA0432019C43EA0603A4F10C04FB
:1007B0000294009CCDE900B4FFF746FF03B0BDE80A
:1007C000F08F00200146F9E7C1F30A52C1F313018B
:1007D00040F2FF3341F480119A4202DA00200146D0
:1007E000704740F233439A42A2F2334202DC524253
:1007F000FFF79ABCFFF7C1BE064C074D06E0E06864
:1008000040F0010394E8070098471034AC42F6D357
:10081000FFF770FCEC1F00080C200008FEE700004A
:100820000E48016821F080710160016841F080711B
:1008300001600B48016821F001010160016841F08D
:10084000010101600021416000BF00BF00BF40689E
:1008500008B100207047012070470000FCED00E067
:10086000001000E031B5084D6C6800F0C3FA07498C
:10087000B0FBF1F000994843009068680099001BB4
:100880008842FAD338BD0000001000E040420F005B
:10089000704710B54FF4005000F082F84FF48040DC
:1008A00000F07EF8BDE810404FF4004000F078B84A
:1008B00070B5044600F06AF90546601C02D0044891
:1008C0000078044400F062F9401BA042FAD370BDE6
:1008D000500000202DE9F0414FF400472B4C2C4EE6
:1008E000B8421FD100F052F9054613E000F04EF96E
:1008F000401BC82805D32088401D208000F046F901
:1009000005460121084601F0F3F9B4F9001021A0D1
:1009100001F0C6F93946304600F02EF90028E5D03E
:10092000BDE8F0814FF48047B84226D100F02EF99F
:1009300005464FF0000819E000F028F9401BC828D0
:1009400005D32088401F208000F020F90546B4F927
:100950000000002801DAA4F800800121084601F017
:10096000C7F9B4F900100BA001F09AF939463046E6
:1009700000F002F90028DFD0D2E7B0F5005FCFD158
:1009800001F0D8FAC4E90601CAE7000028000020F7
:10099000000C01406D61783A2025346400000000AD
:1009A000044910B50A68024202D00860FFF792FFBE
:1009B00010BD0000140401402DE9F84FDFF89C91B0
:1009C000002409F1040A0AF1040B23460F270BF156
:1009D000040EBBE00125A5402A40AA4276D1DFF8EB
:1009E00080C14E68A6EB0C0866452BD00DDC032EAB
:1009F00034D005DC36B3012E19D0022E2FD11BE0E6
:100A0000112E16D0122E2AD119E0B8F5881F19D050
:100A100006DCB8F5803F15D0B8F5801F1FD111E076
:100A2000B8F5001F0ED0B8F5041F18D10AE0CB6846
:100A300015E0CB681B1D12E0CB6808330FE0CB68D4
:100A40000C330CE08B682BB1012B4FF0080303D063
:100A5000456104E0042302E0056100E00023FF2A71
:100A600001D8064601E000F104064FEA840501D9E9
:100A7000A5F12005D6F8008007FA05FC28EA0C0845
:100A800003FA05F548EA0508C6F800804D68ED0050
:100A90005BD5344DAE6946F00106AE61AD6924F018
:100AA000030605F0010500952F4D06EB050CDCF85B
:100AB0000850A607360F07FA06F825EA0805DFF8FA
:100AC000AC80404503D14FF0000810E03DE0DFF876
:100AD000A080404502D14FF0010808E0DFF8948083
:100AE000404502D14FF0020801E04FF0030808FA38
:100AF00006F848EA0508CCF808804D68D9F8006087
:100B0000ED034D4601D5164300E096432E604D6837
:100B1000DAF80060AD03554601D5164300E0964370
:100B20002E604D68DBF80060ED025D4601D516438E
:100B300000E096432E604D68DEF80060AD02754619
:100B400001D5164300E096432E60641C0A6832FA11
:100B500004F57FF43FAFBDE8F88F000000040140CA
:100B60000000111000100240000001400008014088
:100B7000000C0140001001408068084000D00120B6
:100B800070470AB1016170470904FBE701488068BA
:100B9000704700005000002002488168027811442C
:100BA0008160704750000020074810B5016841F08F
:100BB00010010160032000F075F8002000F006F835
:100BC00000F024F8002010BD0020024070B50D4D4B
:100BD00004464FF47A712878B1FBF0F00A490968AD
:100BE000B1FBF0F000F0D2FA48B9102C07D2002285
:100BF0002146501E00F036F800206C6070BD0120C8
:100C000070BD0000500000205C0000200C4808B5BA
:100C1000816941F001018161816901F00101009167
:100C2000C16941F08051C161C06900F080500090FD
:100C30000448416821F0E06141F00071416008BD65
:100C40000010024000000140002809DB00F01F02F4
:100C5000012191404009800000F1E020C0F800111E
:100C600070470000F0B40E4B1B680C46C3F3022320
:100C7000C3F10705042D00D90425191D072901D248
:100C8000002300E0DB1E012606FA05F1491E214083
:100C900099409E40761E16403143F0BC00F038BBB0
:100CA0000CED00E0064900F0070208684FF6FF036C
:100CB000184040EA0220034A1043086070470000D1
:100CC0000CED00E00000FA052DE9F0470F460500A5
:100CD00061D0434E306800F00700B84209D2306856
:100CE00020F0070038433060306800F00700B84259
:100CF00051D128683B4C810712D5400703D5606865
:100D000040F4E06060602878000703D5606840F434
:100D1000605060606068A96820F0F000084360607F
:100D20002878C00728D06868012810D021680228D8
:100D300010D0890700292EDA616821F003010143F0
:100D40006160FFF723FF804641F288390DE021689A
:100D50008903EFE78901EDE7FFF718FFA0EB080132
:100D6000494502D90320BDE8F0876068696800F052
:100D70000C00B0EB810FEFD1306800F00700B842F3
:100D80000BD9306820F0070038433060306800F03D
:100D90000700B84201D00120E5E72878400705D5D3
:100DA0006068E96820F4E060084360602878000724
:100DB00006D56068296920F4605040EAC10060608F
:100DC00000F01EF86168084AC1F30311515CC84085
:100DD0000649086006480068FFF7F8FE0020C2E7F1
:100DE0000020024000100240DC1F00085C000020D0
:100DF0005400002001480068704700005C0000209B
:100E000012A185B00FC98DE80F0014A0144A006824
:100E100004905168134801F00C03042B10D0082BE8
:100E20000ED1C1F38343C9031DF803000AD55168ED
:100E300004AAC1F34041515C0A4A5043B0FBF1F0AF
:100E400005B0704708494843FAE70000020304056B
:100E5000060708090A0B0C0D0E0F10100102000006
:100E60000010024000127A0000093D002DE9F84F01
:100E7000040070D02078C04DC00749D06868C0F326
:100E80008100012807D06868C0F38100022809D1D9
:100E90006868C00306D52868800339D560680028D3
:100EA000E7D035E06068B0F5803F0BD010B1B0F509
:100EB000A02F11D0286820F480302860286820F402
:100EC000802002E0286840F480302860606890B19B
:100ED000FFF75CFE06460AE0286840F480202860A0
:100EE000F0E700BFFFF752FE801B642873D8286824
:100EF0008003F7D50CE0FFF749FE064605E000BF8A
:100F0000FFF744FE801B6428F0D828688003F7D4DC
:100F100020789A4E80074FF001094FF0000839D52C
:100F2000686810F00C0F07D06868C0F381000228D1
:100F300009D16868C00306D42868800714D52069E1
:100F4000012808D110E02069B0B1C6F80090FFF781
:100F50001DFE074605E00AE1FFF718FEC01B022848
:100F6000C4D828688007F7D52868616920F0F800A0
:100F700040EAC10028600DE0C6F80080FFF706FED9
:100F8000074604E0FFF702FEC01B022823D82868AA
:100F90008007F7D4207800072CD57948A169D9B10A
:100FA000C0F80090FFF7F2FD074604E0FFF7EEFD02
:100FB000C01B02280FD8686A8007F7D571484FF424
:100FC000FA510068B0FBF1F0009000BF0098411E9C
:100FD0000091FAD20EE080E0C0F80080FFF7D6FD65
:100FE000074604E0FFF7D2FDC01B022875D8686AE7
:100FF0008007F7D42078400760D5E8690027C00053
:1010000008D4E86940F08050E861E869012700F001
:10101000805000905C480168C90513D4016883467C
:1010200041F480710160FFF7B1FD824606E000BF28
:10103000FFF7ACFDA0EB0A0064284ED8DBF80000F7
:10104000C005F5D5E06801280AD008B1052813D0FD
:10105000286A20F001002862286A20F0040002E0DB
:10106000286A40F001002862E06841F2883B98B1AC
:10107000FFF78CFD82460BE0286A40F004002862EE
:10108000EEE700BFFFF782FDA0EB0A0159455AD8F1
:10109000286A8007F6D50CE0FFF778FD824605E068
:1010A000FFF774FDA0EB0A0159454CD8286A800768
:1010B000F6D41FB1E86920F08050E861E06988B398
:1010C0006968C1F38101022944D00228C6F8608012
:1010D00004D0FFF75BFD044638E034E0FFF756FD2F
:1010E000074604E0FFF752FDC01B02282BD82868F2
:1010F0008001F7D4206AB0F5803F05D16868A16807
:1011000020F4003008436860D4E9080108436968A6
:1011100021F4741108436860C6F86090FFF736FD4B
:10112000044606E025E000BFFFF730FD001B022863
:1011300009D828688001F7D51BE000BFFFF726FD1E
:10114000001B022802D90320BDE8F88F286880011F
:10115000F4D40EE00128F7D06868226A00F48031E8
:10116000914204D1616A00F47010884201D00120DC
:10117000EAE70020E8E700000010024000004242D9
:10118000800442425C0000200070004010B5401E08
:10119000B0F1807F01D3012010BD4FF0E0246061E9
:1011A0000F21601700F0B4F80020A0610720206133
:1011B000002010BDFEE700002DE9F04186B00025BB
:1011C0002A480095019502950395816941F0200117
:1011D0008161816901F020010491816941F004017C
:1011E0008161816901F004010491816941F0080184
:1011F000816180691E4F00F0080004900022F621F2
:101200003846FFF7BEFCDFF86C8000220321404621
:10121000FFF7B7FC0124CDE9004569463846029442
:10122000FFF7CAFBF62002268DE8710069463846B2
:10123000FFF7C2FB03208DE8710069464046FFF7C7
:10124000BBFB4FF4604000900B48CDE901046946B8
:101250004046FFF7B1FB002201212820FFF702FDE5
:101260002820FFF7F1FC06B0BDE8F0810010024035
:1012700000080140000C014000002110FEE7FEE7DD
:1012800070477047FFF788BC30B58FB0282168469B
:10129000FEF761FF14210AA8FEF75DFF0121080493
:1012A000CDE900100024029402250491CDE90750F5
:1012B0004FF4E01009906846FFF7D8FD08B172B608
:1012C000FEE70F20CDE90A054FF48060CDE90C4020
:1012D00002210AA80E94FFF7F7FC002801D072B68D
:1012E000FEE70FB030BD7047FEE7000037B514468B
:1012F0000846064B6A46214600F0ECF8044669466B
:10130000002000F06AFC20463EBD0000DB1B000808
:101310000907090E002804DB00F1E02080F8001422
:10132000704700F00F0000F1E02080F8141D7047B6
:1013300002E008C8121F08C1002AFAD1704770479E
:10134000002001E001C1121F002AFBD170470000FC
:101350002DE9FF5F82B00021DDE90430020DDDF8E8
:1013600040B0034318D044F61050A2F2FF3242437B
:101370001514119801281FD0A5EB0B00401C5FEA43
:10138000000A4FF000064E4FDFF83891B046504645
:1013900015D5CAF1000413E0119801244AA30128CD
:1013A00001D16FEA0B010298119AC0E90031C0E93E
:1013B000024206B0BDE8F09FCBF10000DFE7044633
:1013C0000021404A491842EB0450CDE9001012E0D8
:1013D000E00707D032463B4640464946FFF782F9D0
:1013E0008046894632463B4610461946FFF77AF951
:1013F00006460F466410002CEAD1DDE90401DDE960
:101400000023BAF1000F06DAFFF76CF942464B46AB
:10141000FFF768F905E0FEF7AFFF42464B46FEF7DF
:10142000ABFF04460E460022284BFFF72BF803D8EB
:101430004FF0FF30014607E00022254B20463146A1
:10144000FEF7F3FEFFF7C0F9102409E0002C0ADBD9
:101450000A220023FFF760F8039B30321A55641EFE
:1014600050EA0102F2D1641C039AC4F1110314443E
:10147000119A012A03D0012208430DD10AE0084342
:1014800004D000204FF0110B119072E7A3EB0B0575
:101490006D1E0DE05B4504DD4FF0000205F1010516
:1014A00004E003DA4FF00002A5F10105002AECD0B8
:1014B00002981199C0E90231C0E9004579E70000BE
:1014C000000014400000F03F300000000000F04336
:1014D0000000E03F2DE9FF4F95B09A46884606464A
:1014E0000025EEE1252877D100242746F94A01217D
:1014F000039400E0044316F8013F203B01FA03F097
:101500001042F7D130782A2811D06FF02F033078AD
:10151000A0F13002092A16D8039A44F0020402EB23
:10152000820203EB42021044761C0390EFE758F866
:10153000042B0392002A03DA504244F4005403902F
:1015400044F00204761C30782E2816D116F8010FCC
:1015500044F004042A280DD06FF02F023078A0F157
:101560003003092B09D807EB870302EB4303C718A5
:10157000761CF3E758F8047B761C30786C280FD083
:1015800006DC4C2817D068280DD06A2814D104E056
:10159000742810D07A280FD10DE044F400140AE02A
:1015A00044F4801401E044F440147278824202D181
:1015B00004F58014761C761C307866280BD013DC7A
:1015C000582877D009DC002875D04528F6D0462861
:1015D000F4D047281AD193E118E0632835D0642865
:1015E00079D0652812D18BE1702873D008DC672888
:1015F000F1D069286FD06E280DD06F2806D1ACE0ED
:1016000073282CD0752874D0782853D05246179957
:1016100090476D1C54E1C4F30250022809D00328FE
:101620000DD0D8F8001004280DD00D6008F1040882
:1016300046E1D8F80010EA17C1E90052F6E7D8F8F9
:1016400000100D80F2E70D70F0E718F8041B8DF81C
:10165000001000208DF80100EB46012003E058F84F
:1016600004BB4FF0FF3061074FF0000102D40DE0E2
:1016700009F101018946B9420FDA8145F8DB1BF80F
:1016800009100029F4D108E009F1010189468142DD
:10169000FADB1BF809100029F6D103985346A0EB9A
:1016A000090721463846179A00F080FA284400EBD3
:1016B000090507E044E008E10DE01BF8010B524684
:1016C00017999047B9F10109F7D253462146384698
:1016D000179AF2E039E00A21C4F302524FF0000BEE
:1016E0000091022A06D058F8040BC117032A09D02A
:1016F0000AE023E008F1070020F00702F2E8020107
:10170000904605E000B2C117042A01D140B2C117CA
:10171000002906DA0A460021404261EB02012D222F
:1017200002E0220504D52B228DF80420012203E0DB
:10173000E20701D02022F7E7914657E00A2100E0B6
:1017400010214FF0000B00910BE010214FF0000B27
:1017500044F004040827009103E008204FF0000B38
:101760000090C4F30252022A05D058F8040B00215D
:10177000032A08D008E008F1070020F00702F2E889
:101780000201904603E080B2042A00D1C0B24FF0BB
:10179000000922072AD53278702A07D0DDF800C068
:1017A0008CF0100C5CEA0B0C05D00EE040228DF89A
:1017B0000420012208E050EA010306D030238DF80E
:1017C00004308DF8052002229146009B83F0080327
:1017D00053EA0B030AD150EA010201D1620705D591
:1017E00030228DF804204FF001097F1E3278582AEC
:1017F00004D039A20C920CAA02920BE03BA2F9E7AA
:101800005B46009AFEF788FE0C9B9B5C029A521E78
:101810000292137050EA0102F2D1029804A9081A48
:1018200000F1200B600702D524F4803400E001278A
:101830005F4502DDA7EB0B0000E0002000EB0B0191
:10184000009003984944401A0390E00306D453469D
:101850002146179A039800F0A9F90544002706E0ED
:1018600001A85246C05D179990476D1C7F1C4F45DB
:10187000F6DBE0030CD553462146179A039800F097
:1018800095F9054404E030205246179990476D1CA5
:101890000099481E00900029F5DC08E002980299A2
:1018A00052460078491C0291179990476D1CBBF174
:1018B0000001ABF1010BF1DC5BE100F065F90544DF
:1018C000761C307800287FF40DAE19B02846BDE8AC
:1018D000F08F0000092801003031323334353637BB
:1018E000383961626364656600000000303132336C
:1018F000343536373839414243444546000000000C
:10190000600700D4062708F1070020F00700F0E880
:101910000223804603F0004C5FEA0C0001D097A040
:1019200009E0200501D596A005E0E00701D095A0CB
:1019300001E0AFF24C001390307823F000436528AB
:101940000CD006DC452809D046281DD047287FD179
:101950003BE0662818D067287AD136E00021112FA5
:1019600001DB112000E0781CCDE9000104A90CA8DE
:10197000FFF7EEFCDDE90D010C9A4FF0000B07F1CB
:101980000109109200914EE04FF000400097CDE920
:10199000011004A90CA8FFF7DBFCDDE90D020C9B8C
:1019A0000F994FF0000B91461093009211B9791CDA
:1019B00000EB0109B7EB090003D4C0F1FF3B07F1CD
:1019C0000109A9EB0700019042E0012F00DA01278D
:1019D0000021112F01DD112000E03846CDE9000182
:1019E00004A90CA8FFF7B4FCDDE90D010C9A0091E5
:1019F0004FF0000BB946109221070FD4009A4A45C8
:101A000003DA914601E0A9F10109B9F1010F05DD01
:101A1000109AA9F10101515C3029F4D0B84202DAE0
:101A200010F1040F03DA0121CDE9011010E00028C4
:101A300003DC8344A9EB000102E0411C494500DDC1
:101A40008946A0EB0B00401C01904FF00040029033
:101A5000200705D40198484502DB4FF0FF30019084
:101A600000208DF84B0002980DF14B07B0F1004FAC
:101A700025D002200C902B200D90029800280CDA23
:101A8000404202902D200D9007E00A210298FEF7B7
:101A90002DFD3031029007F8011D0C99481E0C9065
:101AA0000029F2DC02980028EFD1791E0D98087009
:101AB000307800F0200040F0450007F8020D11A832
:101AC000C01BC01D02901398007800B1012000EBEC
:101AD0000901019801EBE071029801440398401A52
:101AE000401E0390E00306D453462146179A0398FC
:101AF00000F05CF805441398007818B15246179925
:101B000090476D1CE00323D553462146179A03984E
:101B100000F04CF805441BE0BBF1000F07DB009818
:101B2000584504DD1098179910F80B0001E017993B
:101B300030205246904701980BF1010B401E05F1F1
:101B40000105019004D12E205246179990476D1C33
:101B5000B9F10001A9F10109DEDC05E017F8010B7C
:101B60005246179990476D1C0299481E0290002911
:101B7000F4DC53462146179A03989EE62D00000098
:101B80002B000000200000002DE9F0410446002554
:101B90001E461746880404D405E039462020B04785
:101BA0006D1C641EF9D52846BDE8F0812DE9F04191
:101BB000044600251E469046C80301D5302700E0A4
:101BC0002027880404D505E041463846B0476D1CFF
:101BD000641EF9D52846BDE8F0810A68531C0B60E5
:101BE0001070704710B5094C0122E188A069FEF71A
:101BF000C8FF1420FEF736FE0022E188A069FEF738
:101C0000C0FFBDE810403C20FEF72CBE00000020C5
:101C10002DE9F05F07460AA81C4690E8000F15461C
:101C20000E46FEF7FDFD1D48002187618680C580B8
:101C30000462A0F81080A0F81290A0F814A0A0F8F8
:101C400016B00170282181701420FEF731FE0320A8
:101C500000F0C6F80520FEF72BFE032000F0C0F8C8
:101C60000120FEF725FE032000F0BAF80120FEF760
:101C70001FFE022000F0B4F80120FEF719FE282014
:101C800000F0D2F80C2000F0CFF8012000F0CCF8E2
:101C9000BDE8F05F0320FEF70BBE0000000000204F
:101CA0000FB470B586B00BAA68460A99FFF71EFB01
:101CB00000246E4608E0355D012000F011F828464A
:101CC00000F022F8641CE4B26846FEF74FFAA04226
:101CD00001D9102CEFD306B070BC5DF814FB0000E6
:101CE0000246024881888069FEF74BBF0000002051
:101CF00001F00F0120B141F0C00000BF00F094B826
:101D000041F08000FAE700002DE9F84F0209334C5A
:101D100002F0080302F0040B217802F0020902F03D
:101D2000010700F0080A00F0040600F0020500F0C8
:101D30000108009321B342462189E069FEF721FFA3
:101D40002A466189E069FEF71CFF3246A189E069F5
:101D5000FEF717FF5246E189E069FEF712FF3A46A7
:101D6000218A206AFEF70DFF4A46618A206AFEF743
:101D700008FF5A46A18A206AFEF703FF009A25E071
:101D80003A46218A206AFEF7FCFE4A46618A206AAA
:101D9000FEF7F7FE5A46A18A206AFEF7F2FEE18AB4
:101DA000009A206AFEF7EDFEFFF71CFF4246218AEB
:101DB000206AFEF7E6FE2A46618A206AFEF7E1FE07
:101DC0003246A18A206AFEF7DCFE5246E18A206A8A
:101DD000FEF7D7FEBDE8F84FFFF704BF0000002074
:101DE00070B505460020FFF77BFF0E4C05F00102A1
:101DF000218A206AFEF7C5FE05F00202618A206A88
:101E0000FEF7BFFE05F00402A18A206AFEF7B9FEC4
:101E100005F00802E18A206AFEF7B3FEBDE87040D3
:101E2000FFF7E0BE0000002010B504460020FFF7D9
:101E300057FF2046BDE81040FFF766BF1FB5FEF70D
:101E4000B3FEFFF721FAFFF7B7F9802340222021E4
:101E500010208DE80F002E4D02222B4601212D4827
:101E6000FFF7D6FE00F066F82B4C4FF40007C4E9EC
:101E7000060100BF00F05EF8C4E9040102460B460B
:101E8000D4E90601FEF7FEFA04D8D4E90601D4E944
:101E9000042303E0103494E80F00103CFEF766FAC8
:101EA000C4E9080101210020FFF722FFD4E908015D
:101EB000D4E90223FEF760FA02460B4617A0FFF7AB
:101EC000EFFE01210846FFF713FFB4F9001016A03A
:101ED000FFF7E6FED4E90801D4E90223FEF74CFA45
:101EE000FEF7E8FA0646B4F90000FEF7B4FA314608
:101EF000FEF798F9B84201DB012200E0002204213C
:101F00002846FEF73EFE6420FEF7D2FCB2E7000052
:101F100000080140000C0140280000206D3A2025F7
:101F2000392E3466200000006D61783A2025346433
:101F30000000000070B500242546264600F014F885
:101F4000FEF792FA22462B46FEF76FF9761C0446FE
:101F50000D46142EF2DBBDE870400022014BFEF767
:101F60000BBA00000000344070B51B4C0122114632
:101F70002046FEF706FE002202212046FEF701FE63
:101F8000002501212046FEF7F7FD0028F9D10026A3
:101F9000012202212046FEF7F4FD6D0000220221FD
:101FA0002046FEF7EEFD01212046FEF7E5FD00B1DB
:101FB0006D1C761CF6B2182EEAD3012202212046AF
:101FC000FEF7DFFD85F40005002202212046FEF722
:101FD000D8FD284670BD0000000801400000000048
:101FE0000000000001020304060708090C20000895
:101FF0000000002060000000301300086C20000882
:10200000600000200004000040130008010F3800A9
:1020100000000000000000000000000000000000C0
:1020200000000000000000000000000000000000B0
:1020300000000000000000000000000000000000A0
:1020400000B8A040000000000000000000000000F8
:10205000000000000000000000000000010000007F
:0C20600010000000000000000024F4004C
:04000005080000ED02
:00000001FF
